:400000000010002011000000910100009101000008B500F0D5F900F0BDF8C04610B5124C22688023DB0213432360182000F0F0FD22680E4B134023600D4A0E4B1A60102205
:400040000D4B1A60802212060C4B1A600C4A0D4B1A6009200C4900F079FD092000F060FD00220A4B1A6010BD00010B40FFFFFBFF0600008004010B400802024008010B4029
:400080000E00008000000240250E00000C020B4038B572B600241C4D0CE063001B195B00EB1899881A8858880004104300F0C4F80134E4B2012CF0D9EE221202134B1A60FE
:4000C000EE22134B1A6099221204124B1A60124B197802220A431A70104A11783C208143142001431170197816220A431A70D82212010B4B1A6003220A4B1A6024220A4B7F
:400100001A60FFF78BFF38BD081500000C0001401000014030500F4000700F4001700F4008030440000404400804044010B5064C2378002B07D1054B002B02D0044800E0B2
:4001400000BF0123237010BDF0000020000000000415000008B5084B002B03D00748084900E000BF07480368002B03D0064B002B00D0984708BDC0460000000004150000FF
:40018000F4000020D00000200000000062B6FEE7FEE7C046F8B50F4F0F4E002412E031687368B568221C02E001C901C30432AA42FAD1F168221C01E010C304328A42FBD190
:4001C0001036013F002FEAD101F060F9FFF7DEFFFEE7C04601000000C815000038B50023104C114D114808E0032B02D89A00515900E0211C9A00115001332F2BF4D9FFF7E9
:4002000047FF00220A4B1A600A4B1B68002B01D1084B1A608023DB05196801220A431A6038BDC046910100000000000000000020C8000020C000002008B50A1C002101F08D
:4002400054F908BD002306E04218013A1278D3189BB2013989B20029F6D15B4298B270470047C046F0B583B00C1C6E46F280063601230B704870151CA270130ACB70171D34
:40028000B9B2201CFFF7DEFFE0556B1D000AE054AB1D1722E2540735A9B2201C321C962300F012FB03B0F0BD70B5051C0E1C141C002802D0002000F047FC0020A91903E0A9
:4002C000013C0A5D1318D8B2002CF9D170BDC04608B50A283FD880002E4B1B589F46C90149422D4BC91801233AE0C90149422B4BC918042334E0C9014942294BC918022383
:400300002EE0C9014942274BC918042328E0C9014942254BC918012322E0C9014942234BC91801231CE0C9014942214BC918022316E0C90149421F4BC918022310E0C9010C
:4003400049421D4BC91802230AE0C90149421B4BC918042304E0002000F0F6FB02230021012B02D10878C0B200E00020022B03D10A78487800021043042B09D10B784878D7
:40038000000218438B781B041843CB781B06184308BDC04614150000C07F0000C17F0000C57F0000C97F0000D07F0000D17F0000D67F0000D27F0000D47F0000D87F0000B6
:4003C00008B50D4B1B68DA0602D400220B4B1A600A4B1B68802B0ED10022084B1A6002200021FFF775FF002805D002200021FFF76FFFFFF735FF08BD00030B40C0000020FE
:40040000F0B5474680B4804603204146FFF760FF461CF60104204146FFF75AFF361803204146FFF755FF431CDB0100240027012108E01A78551EEDB2FD2D00D80F1CA418DF
:40044000E4B20133B342F4D36442E4B201204146FFF73EFF844203D1002F03D1062002E0062000E0002004BC9046F0BDF0B55F4656464D464446F0B4C34CA544041C00F022
:40048000CBF962B600270A250020BB468046BF4A9246002C01D1FF2300E0231C50A896214900BB4A6A4400F0CFF9002C01D0013DEDB2002D01D00028EBD1002800D071E19A
:4004C000B34B6B441B88062B22D950AA1278012A20D150AAD0780002917808438046011C0531565C36020139525C1643021C07329A4211D8031C063350AAD35C172B0DD147
:4005000089B2101CFFF79EFEB04209D1002608E0042606E0042604E0032602E0042600E00826002E00D0EEE050AB187981465A78131C313BD9B20A2900D9E6E08B0051467C
:40054000CB589F46012F00D0E2E04246002A00D0E1E00020FFF754FF4242424150AB1A7101220CE1012F00D0D8E04346012B00D0D7E0002800D0D7E0864B1B681A68D30B11
:40058000DBB2994502D15204120E05E0994501D9002201E08022520050AB1A71120A5A71FF229A710022DA710422E8E0342A0DD1012F00D0BBE04146032900D0BAE005A85E
:4005C0000021802200F091FF80229346012F00D0B3E04346022B00D8B2E005A9081C58444246033A3431FF3100F076FF5B4643449BB2832B00D0A6E050AB987900025B7902
:40060000034349460802C01880B2624B1B681A68D3099BB2510601D001339BB2984200D298E005A900F0B4F9002800D00A260022934680239846A2E0012F00D1B0E00426FD
:4006400000229CE0012F00D08BE05B46434496225200934200D987E005A9081C584451A9424600F039FF5B4643449BB29B46002285E04346002B7AD103AB474981C981C36A
:4006800051AB03AA81CA81C30127082277E0012F70D14146032970D150AB9A7912025B791A4300920102009BC918C90100208022FFF7FAFD0190031C4846002811D1009936
:4006C000FF290ED105200021FFF702FE019A101AC0B2814606200021FFF7FAFD49460B1ADBB25B4250AA1371012248E00020FFF787FE002802D18023284A136000F05AFA7C
:40070000042600223BE0002239E00526002236E00426002233E00426002230E0042600222DE0042600222AE00426002227E00426002224E00426002221E0042600221EE010
:40074000042600221BE000239B46802080460326002214E000218B46802290460A2600220DE0042600220AE00326002207E00426002204E00426002201E004260022301C83
:4007800050A9FFF76FFD0DE08CFDFFFF401500006E020000D40000206C150000C000002000239B46002C00D173E6012F00D170E69D239B009D443CBC90469946A246AB46DD
:4007C000F0BDC0460F4B1B685A0619D50E4B1B68DA060BD50D4B1B68002B11D00C4A136000230C4A1360094A136009E0094B1A68074B1B689A4203D0054B1A68054B1A603E
:400800007047C0464C0F0640640006400C010020D4010020B801002010B5094C201D402100F088F8201C4430002100F065F8054800F070FB0023236000F05CFB10BDC04607
:400840000C010020C5070000F8B54F464646C0B480460F1C9146002828D0002928D09C00E4186400154E10251CE033782B4215D0134B1A6849460A80002210490A701A603F
:400880004A4613881A1CBB4200D93A1C92B240460C49043100F020FE00200AE0012000F095F9013C002CE0D1102002E0012000E001200CBC90469946F8BDC046BD0100203C
:4008C000CC0100200C01002038B5031C0C1C00280CD000290CD01180064D281C4430191C221C00F0F9FD2C60002002E0012000E0012038BD0C01002038B5041C0D1C00287C
:400900000ED00A2000F016F9064B1C60064B1D600023064A1360064A13600A2000F000F938BDC046C4010020D4010020B8010020C801002038B5041C0D1C00280CD00A205E
:4009400000F0F8F8054B1C60054B1D600022054B1A600A2000F0E4F838BDC046D0010020C0010020CC010020024B1A68024B1A600020704708010B4090010020024B1A6821
:40098000024B1A60002070479001002008010B40F0B5474680B4A4B0061C002323932293FF2800D9A5E0002900D1A2E002A8802200F092FD022300240021002508E09A004D
:4009C00068461258002A02D0891814431D1C0133212BF4D9002902D1002C02D102E0002400E00124002C05D0AB0069465F5800225A5000E00027424B00937F230193414B98
:400A000000AA1A604049414A11601B681B0F0A2B04D03C4B1B680F22134000E000232393239B002B67D100F011FB8046FFF79CFF2290239B002B16D1354B0093009A330436
:400A4000134300932F4B00A8186032492F4A11601B681B0F0A2B04D02A4B1B680F22134000E000232393239B002B38D1002C36D002A80021802200F038FDAD0069466F50D2
:400A80001F4B00937F2301931E4B00AA1A601E491E4A11601B681B0F0A2B04D0194B1B680F22134000E000232393239B002B16D1194B0093009B36041E430096114B00A8C5
:400AC00018601649114A11601B681B0F0A2B04D00C4B1B680F22134000E000232393229B002B02D1FFF74AFF2290404600F0B2FA01E004232393239824B004BC9046F0BD28
:400B0000B6D70000080000400400008004000040B6D8000005000080B6D90000060000801F23184001238340181C014B1860704700E100E01F23184001238340181C014BFE
:400B40001860704780E100E001BE704738B5041C0D1C1F2802D90020FFF7F6FFA400024BE4182068256038BD4000002070B5041C0E1E032E02D90020FFF7E6FF1F2C02D93F
:400B80000020FFF7E1FF03252540ED00063500F05DFAA408A400064BE41823680322AA409343AE40351C1D43256000F053FA70BD00E400E0034B1A681204120C02490A4348
:400BC0001A6070470CED00E00400FA0570B5041C80252D02074E04E0306800F02DFA064BE418AC42F8D8034B5868604300F024FA70BDC046DC0000200080FFFF08B5034B65
:400C00001B7A584300F018FA08BDC046DC000020F0B557464E464546E0B4041C00F016FA8046E51E2D2D73D83F4B1B78DBB2A34208D33E4B1B78DBB29A463D4B1B78DBB29D
:400C4000994631E03B4B1B78DBB2A34208D33A4B1B78DBB29A46394B1B78DBB2994623E0374B1B78DBB2A34208D3364B1B78DBB29A46354B1B78DBB2994615E0334B1B78AB
:400C8000DBB2A34208D3324B1B78DBB29A46314B1B78DBB2994607E02F4B1B78DBB29A462E4B1B78DBB299462D4B5E5D2F2E09D92A2C07D919222B4B1A60052000F0BCF979
:400CC000192703E0274B1F683F231F40BE4206D2234B5A5D234B1A60052000F0ADF91F4AA4182278D2B2204B1A60204B52461A601F4B4A461A600520FFF780FFBE420AD9E1
:400D0000174B5A5D174B1A60052000F095F902E00020FFF719FF404600F09CF91CBC90469946A246F0BDC046C0F1FF0FC1F1FF0FC2F1FF0FC3F1FF0FC4F1FF0FC5F1FF0F4F
:400D4000C6F1FF0FC7F1FF0FC8F1FF0FC9F1FF0FCAF1FF0FCBF1FF0FCCF1FF0FCDF1FF0F741500002CFF0B4028FF0B401CFF0B4020FF0B40044B1A68C0231B021A4201D0F0
:400D8000012000E00020704700010B4008B500F05DF9044B1968C02212020A431A6000F059F908BD00010B4010B500F04FF9084B1968084A11408024E401214319601968D1
:400DC0000A40802109020A431A6000F043F910BD00010B40FF3FFFFF38B5051C00F036F9041CFFF7C7FF002803D0FFF7DDFF012200E00022084B1D40084B186808490140A5
:400E00000D431D601B68012A01D1FFF7BFFF201C00F020F938BDC0460404040010020B40FBFBFBFF10B5244B1B685A0715D5234B1B685A070ED5224B9C69042214401F498D
:400E40000868A0430860996991439961DB68002B00D098470420FFF7BFFF174B1B685A0518D5164B1B685A0510D5154B9A698020C0001040114A1168814311609969114A20
:400E80000A409A611B69002B00D098478020C000FFF7A2FF084B1B685A030CD5074B1B685A0304D5064B5B69002B00D098478020C002FFF791FF10BD10020B40EC0000206C
:400EC00094010020FFFBFFFF08B50A20FFF728FE08BDC04608B500F041F808BD08B5044B1968802212060A431A60FFF7EDFF08BD0000064008B5064B1B78002B04D1FFF73A
:400F0000E9FF0122024B1A70FFF7E8FF08BDC046B0010020014B58607047C046B00100200A4B1B68DA050DD5094B1B685A0409D4064B1968074A0A401A60196880225200BD
:400F40000A431A600222044B1A6070470000064060000640FFFEFFFF6C00064010B51E4B19680C220A431A6000241C4B1C601C4A1C4B1A601C4B1D4A13601D4A14601D49F9
:400F80001D4A11601D4A13601D4B1C600A20FFF7D1FD0A200321FFF7E9FD0A201949FFF7D5FD194B1C60194B1C604C22FF32184B1A60184B1C60184B1C60184B1C60102224
:400FC000174B1A70174B1C70174B1C60174B1C60174B1C7010BDC046700006400000064077080040600006400701008000030640040306401000FE0010030640000206406C
:401000000402064061100000C80E0640880E0640480F0640080F0640C80F0640880F0640D8010020BD010020B8010020CC010020BC010020000000000230800804D0C046F9
:401040000138FDD1C046C046C0467047EFF3108072B6704780F310887047C046C046C046F0B5474680B4C34B1B68002B00D09847C14B1B68D80702D50022C04B1A60C04BB3
:401080001B7899061FD4BF4B1A680223FF331A4219D0BB4B1B78DA0709D5BB4B1A7802218A431A70197809220A431A7008E0B64B1A7820218A431A70197890220A431A70B9
:4010C0000022AF4B1A70AE4B1B78980600D5BCE1AB4B1B78D90600D490E1AA4B1B689A073ED50222A94B1A60A94B1A680F210A401B68180401D5012300E00023D318A54ADD
:401100001278D2B29A4205D99F4B197804220A431A7006E09F4A1278D31A9F4A11685B1813609D4B1A689D4B1A6000239C4A1360984A13709B4B1968802252020A431A6010
:401140001968994A0A401A608F4B1A7802218A431A70197801220A431A701022884B1A70884B1B68190739D50822884B1A608F4B1B689A040AD416E01A6831688A1829682F
:40118000C9B211701A6801321A6004E0884C0F20884B894E894D22681042EDD1834B1968874A0A401A60874B1B689A0604D5764B197840220A431A700022834B1A60834A8F
:4011C000804B1A60704B1A7820218A431A70197810220A431A706A4B10221A70694B1B68580641D501227A4B1A607A4B1B68D9060FD510226A4B1A60684B1A68664B1A60E1
:40120000614B197802220A431A7012225C4B1A7024E0714B1A68674B1B68D31A072B03D80422694B1A6011E0082B06D15F4B1968A02212020A431A6008E05C4B19688022D7
:4012400092010A431A6008225F4B1A604E4B197820220A431A701122494B1A705F4A4B4B1A6001225E4B1A605E4B1B681A072BD5594B1A684F4B1B68D31A083B082B02D965
:40128000002608230CE001260AE01168286841182068C0B20870116801311160013B02E0444A454D454C002BEFD1002E08D03F4B1968802212020A431A600022424B1A607F
:4012C0000822404B1A6023E0464B1B6859071FD53A4B1968374B1A683F4B1B689A420DD201223F4B1A60334B1A68334800688218C9B211701A6801321A6006E0FFF710FEC9
:40130000214B197840220A431A7004222D4B1A60354B1B68DA061CD497E032682B689A420AD20B683A68D3181A78D2B22F4B1A600B6801330B6015E0FF222C4B1A60624665
:4013400013789A060ED4424613780133DBB2137008E00F4C0F20104E254D0E4B9C469846311C244F23680340082BD6D11022224B1A606AE0B40100208C0E0640880E064052
:40138000D80100204C0F0640BD010020400F064008020640BC010020C8010020B8010020880F064004020640FFFFFEFF6000064008030640CC010020D001002040030640AF
:4013C000FF5FFFFFC00F0640C80F0640ED0F0000800E064064000640C0010020FF0F00006C000640CC0F06408C0F064040020640D4010020C4010020800F0640144B1A682A
:40140000520052081A601021124A1170124A10681249014011601068114901401160002210490A6010490A601049114A11601149114A11601149124A11601249124A1160D1
:401440001968802212060A431A6004BC9046F0BD00000640D801002060000640FF5FFFFFFFFCFFFFC80F0640880F0640ED0F0000800F0640F3070000C00F0640FF0F000005
:40148000400F064017030000000F064070B50E4B0E4D0024ED1AAD101E1CAC4204D0A300F35898470134F8E700F07CF8084B094D0024ED1AAD101E1CAC4204D0A300F358AB
:4014C00098470134F8E770BDB0150000B0150000B0150000B815000010B50023934203D0CC5CC4540133F9E710BD031C8218934202D019700133FAE770470000F81500003D
:401500006C0000000000000000300F40000400400F40000456030000DE020000EA020000F6020000020300000E0300001A03000032030000260300003E0300004A030000ED
:4015400044050000640500000A070000AC050000380600000A0700004406000072060000AC0500008E060000EC0600009311C804111E0101030405060708090A0B0C0E0FA6
:40158000101112131415161718191B1C1D1E1F2021222325262728292A2B2E2F3031323334350000F8B5C046F8BC08BC9E46704755010000DD010000F8B5C046F8BC08BC7E
:4015C0009E4670472D010000D8150000D000002020000000F000000000000000FC140000001500000000E02EC05D00001800000000366E010404040000000000000000001C
:401600000010002011160000611C0000611C000008B5024B83F3088800F024FB0010002010B5154C22688023DB0213432360182001F034F92268114B13402360104A114B39
:401640001A602022104B1A601022104B1A6080231B060F4A13600F4A13600F4A0F4B1A6009200F4901F0C4F8092001F0A1F800220C4B1A6010BDC04600010B40FFFFFBFF5E
:401680000600008004010B40080202400C02024008010B4000000240CF00008040000240B12A00000C020B4038B572B60024254D0CE063001B195B00EB1899881A885888EE
:4016C0000004104300F020FB0134E4B2012CF0D9FF2212041C4B1A60EE2212021B4B1A6099221B4B1A6099231B041A4A13601A4A13601A4B1878022202210143197018491D
:4017000008783C24A0431424204308701878162101431970302313490B60802040011249086012490B60D8210901114B1960114B1A603121104B1960104B1A60FFF770FFAD
:4017400038BDC046D42E0000000001400C0001401000014000500F4030500F4000700F4001700F40000004400800044018000440080304400004044008040440180404406D
:4017800010B5064C2378002B07D1054B002B02D0044800E000BF0123237010BDF000002000000000442D000008B5084B002B03D00748084900E000BF07480368002B03D032
:4017C000064B002B00D0984708BDC04600000000442D0000F4000020D000002000000000F0B54F464646C0B483B0071C8846141C1D1C002291463A70081C01F09BFA461E06
:4018000001AB4A461A80002D01DDB54203DD002D0CDA76190AE02E1C08E04246135D2B70381C291C01F06FFA013400E001ADB442F3DD03B00CBC90469946F0BD08B5313820
:40184000C3B2052B23D89800134B1B589F461348002100F087FF1EE01148002100F082FF19E09C208000002100F07CFF13E03820FF30002100F076FF0DE09B20002100F025
:4018800071FF08E04D20002100F06CFF03E00548002100F067FF08BD482D0000C3090000E104000087130000F0B583B0071CFA26B6004E43002201AB1A8000230370341C0B
:4018C00001AD00F029FB002808D000F037FE2870381C291C01F017FA341C03E0052000F0D3FF053C2B780A2B01D0002CE9DA102003B0F0BDF0B557464E464546E0B481468F
:401900000E1CFA27BF0057433D1C002410239A46A04611E000F000FB002809D0651CADB24C4400F021FE20702C1C3D1CC24603E0052000F0A9FF053DB44201D2002DE9DA5D
:4019400050461CBC90469946A246F0BDF0B557464E464546E0B492B0051C884601F0EAF981460FAE00230F931093338101A884462D49021C0C1C83CC83C283CC83C227682F
:401980001760A08890806046C3836A469384D384138553859385D385138653869386D38613872232137600F0DDFA00F017FB281C00F00AFE404600F04FFF4A4691B2301C4B
:4019C0001A4AFFF797FF301C291C01F0A9F900281CD001A8291C01F096F901A801F0AAF901AB18181249032201F07CF901A80FA901F089F901A801F09DF901AF38180D49F8
:401A0000042201F06FF901A800F0A0FE2B780FAA1078834202D0303000F022FE12B01CBC90469946A246F0BDD82D0000DC050000102E0000142E000070B592B0061C0AAD7B
:401A400000240A940B940C940D940E940F9410941194089408AB9C800394049405940694079401A85749072201F03CF96A46148000F0B6F93020FFF7E1FE00F08DF9C820D0
:401A800000F0EAFE5048C821FFF760FFC82000F0E3FE281C4D49FFF707FF2B78002B01D02F2B03D000F09CF9042088E00AA801F041F9062803D800F093F903207FE00AAB73
:401AC000DB78434A1268D3185B7803221340022B01D0C82400E014240AAD08A8291C01220423FFF77DFE6B795C2B07D103A80AA9072202235B42FFF773FE06E003A80AA9B6
:401B0000052202235B42FFF76BFE0AAB1D7901A8857024B2211CFFF719FF00F061F9281CFFF78CFE00F038F900F01CFA201C00F093FE68460121274AFFF7DCFE002333708A
:401B40006A461378022B39D1684601211F4AFFF7D1FE684600F0FAFD00241C4D08E05C40684601212A1CFFF7C5FE684600F0EEFD6A461378212BF2D109E05C406846012158
:401B80002A1CFFF7B7FE684600F0E0FD00E00F4D6A461378032BF0D15C40684601210B4AFFF7A8FE6A461378A34203D000233370022004E000F014F9002000E0012012B057
:401BC00070BDC046602D0000182E0000DC050000EC00002098080000F0B585B062B61A48083000F027FB00F0EBF800F01BFD01AA0023019302931381144D154F154E00F036
:401C00008FFD7A281CD101A8FFF716FF041E042C02D1114800F09AFD032C02D10F4800F095FD022C02D1301C00F090FD012C02D1381C00F08BFD002C02D1281C00F086FDA9
:401C400001A800F083FDDAE7602D0000B42E0000942E0000602E0000202E00003C2E0000FEE7C046F8B50F4F0F4E002412E031687368B568221C02E001C901C30432AA4249
:401C8000FAD1F168221C01E010C304328A42FBD11036013F002FEAD100F0FEFFFFF79CFFFEE7C046010000003830000038B50023104C114D114808E0032B02D89A005159A7
:401CC00000E0211C9A00115001332F2BF4D9FFF7EBFC00220A4B1A600A4B1B68002B01D1084B1A608023DB05196801220A431A6038BDC046611C0000001600000000002065
:401D0000C8000020C000002008B50A1C002100F0F2FF08BD08B5044B1B78002B02D00B2000F046FD08BDC0464801002008B5064B1B78022B02D100F071FA03E0042B01D123
:401D400000F0CEFB08BDC046D400002008B50B4B1B78012B02D100F0D9F80DE0082B02D100F03EFC08E0022B02D100F05DFA03E0042B01D100F0C8FB08BDC046D4000020E3
:401D8000034B1B78FF2B02D10022024B1A707047D40000200C01002008B5074B1B78FF2B09D0064B1968802212060A431A60FFF7B1FFFFF7BBFF08BDD40000200000074026
:401DC00008B5064B1B78002B04D1FFF7D9FF0122024B1A70FFF7E0FF08BDC0460C01002008B50B2000F0EEFCFFF7B0FF054B1A68520052081A600022034B1A600B2000F049
:401E0000EBFC08BD00000740880F074070B58EB00023002505E09C0007AEA5516E46A5510133062BF7D9012801D0082807D10E2307930893042300930193002429E002280E
:401E400010D10F2307930893002905D1012300930623019302241CE00623009301230193012416E0012905D1092308930423019300240EE0D00703D5092307930123009336
:401E8000910705D50923089306230193022400E000241A4B19681A4A0A40079E31040A431A600099C8B200F067FCE30705D5154B196810220A431A6004E0124B1A681021D5
:401EC0008A431A600D4B19680F4A0A40089E31050A431A600199C8B200F05CFC0223234205D0084B196820220A431A6004E0054B1A6820218A431A600EB070BD000001407A
:401F0000FFFFF0FF18000440FFFF0FFF1022014B1A707047640100200D4B1B68002B11D00C4B1B680C4A1268934203D30A4A1068181A0BE0084A126808490868801AC318E1
:401F4000581C03E0064B1B680F2018407047C0465C010020700100206C010020540100200803074008B5154B1B68002B1AD00B2000F028FC124B1A68124B1A600022124B67
:401F80001A70124B1968802252020A431A6019680F4A0A401A600F4A0F4B1A600B2000F007FC09E0094B1968802252020A431A601968074A0A401A6008BDC0465C010020BA
:401FC0006C010020700100207801002004030740FFFFFEFFED0F0000C00F074008B5164B1B68002B1CD00B2000F0ECFB134B1A68134B1A60134B1A6802218A431A60124BB6
:402000001968802252020A431A6019680F4A0A401A600F4A0F4B1A600B2000F0C9FB09E0094B1968802252020A431A601968074A0A401A6008BDC0464C01002068010020E6
:4020400074010020880F074004020740FFFFFEFFF3070000800F074010B50B4B1B78082B05D10A4B1B681818C9B201700BE04000064B1C682218CCB2147001301B6818180A
:4020800089B2090A017010BD4A0100205C0100200A490978082905D1094B1A6810180078C0B209E0064B1B6842009918097801329B181878000208437047C0464A010020CD
:4020C0005C01002010B50F4B1B68002B14D00E4B1A680E4B1B689A4211D00C4B1C6801340B4B1B680133A34200D10024201CFFF7CFFF064B1C6003E0064B186800E00020C6
:4021000010BDC0465C010020700100206C010020540100204003074010B50B4B1B78082B05D10A4B1B681818C9B201700BE04000064B1C682218CCB2147001301B68181867
:4021400089B2090A017010BD580100204C01002038B5011C1C4B1B68002B2CD01B4B1A681B4B1B689A4208D11A4B1B680F221340082B02D0184B186025E0144B1C680134E3
:40218000164B1B68A34200D10024114A13689C42FCD00225124B1D60201CFFF7BDFF0B4B1C60104B1B681D420DD10E4B196802220A431A6007E007480F2203681340082BE8
:4021C000FBD0054B196038BD4C0100207401002068010020080207404002074060010020800F0740880F07400A490978082905D1094B1A6810180078C0B209E0064B1B683C
:4022000042009918097801329B181878000208437047C046580100204C010020014B1B687047C04620000740014B1B687047C0462000074010B5041E03D1002000F0D6FA43
:402240000FE1042021686268FFF7E0FD0422854B1A70854B206B1870844B616D1970844BA26B1A60227A834B1A70FF23606B1840814908608149206C086081490A70E16B8C
:402280000B40804A13602268022A29D1A369002B22D06369102B1DD0202B19D0302B15D0602B11D0C02B0DD0C0229200934207D0C022D200934201D106220EE000220CE082
:4022C00005220AE0042208E0032206E0022204E0012202E0002200E010226B4B1A6005E06369013B0F221A40674B1A60664B1B68A06C002801D0654A01E0802292041A4341
:40230000614B1A6021680B06C02292041A40604B1A602369013B07221A40636A002B01D0402300E000231A43606C002802D08023DB0000E000231A43A16A002902D08023C2
:402340005B0000E000231A43E36A002B02D080239B0000E000231A434E4B1A60E368022B09D04C4A1268002B01D0302300E020231A43484B1A60A368013B0F221A40E0694F
:40238000002802D080239B0000E000231A436168C90702D580231B0600E000231A433E4B1A600723E16D19403C4A1160FF22E06C0240216D0804FF21090401401143384A99
:4023C00011602269013A1340226A002A02D08022520000E000221343324A1360E368022B08D01268002B01D0302300E020231A432C4B1A60A368013B0F221A4063689B07C7
:4024000002D580231B0600E000231A43264B1A600722606E0240254B1A600B2000F0D2F90B20032100F0F4F90B20214900F0E0F90023204A1360204A1360204A1360204AFF
:402440001360204AA16D1160216E1F4A11601F4A13601F4A13601F4A13701F4A13601F4A136010BDD400002051010020480100205C0100204A010020540100204C010020D5
:40248000580100206001002000000740000001024000074048000740000307400403074010030740440007400002074004020740552B0000880E0740C80E0740480F074097
:4024C000080F0740C80F0740880F0740700100206C010020780100207401002068010020064B1B689B035B0F07D0054B1968054A0A40902109040A431A6070470800044008
:4025000000000140FFFF0FFF074B1B689B035B0F04D0064B1968064A0A401A60054B1968054A0A401A6070470800044000000140FFFF0FFF48000740FFDFFFFF08B5FFF765
:40254000EBFC002802D0FFF7BDFD00E00020054B1A68D8239B001A4203D01A1C014B1A60002008BDC00F074010B5144B1B68002B02D00B2000F026F9FFF7CEFC00280AD09C
:402580000E4B1B68002B02D00B2000F011F9FFF799FD041C08E00A4B1C68084B1B68002B02D00B2000F004F9064B1868D822920010401A600002204310BDC0465C010020E9
:4025C00040030740C00F074038B5051C002402E0FFF7BEFD0134285D0028F9D138BDC046044B1B78002B01D0022200E00022024B1A707047520100208201002008B500F07A
:4026000085F808BD08B500F039F808BD08B5044B1968802212060A431A60FFF7EFFF08BD0000064008B5064B1B78002B04D1FFF7E9FF0122024B1A70FFF7E8FF08BDC04697
:4026400014010020014B18687047C04640030640024B1B680F2018407047C0460803064004490F220B681340082BFBD0024B18607047C046080206404002064010B5124AF1
:40268000124B1A600023124A13602121114A1160114A12480260072411480460114803601148016011490A60114A1360114A1360114A1360114A1360114A1360114A136036
:4026C000114A136010BDC0460B00000200000640400006404800064006000080000306400403064010030640440006400002064004020640880E0640C80E0640480F0640AA
:40270000080F0640C80F0640880F0640034B1A68F0218A4390210A431A6070471000014008B5FFF795FF002802D0FFF78BFF00E00020054B1A68D8239B001A4203D01A1C86
:40274000014B1A60002008BDC00F064038B5051C002402E0FFF784FF0134285D0028F9D138BDC046034B1A68120C1204104318607047C04600000240044B1968044A114028
:402780000203081C104318607047C04608000440FF8FFFFF044B1968044A1140C203081C104318607047C04608000440FF7FFCFF1F23184001238340181C014B18607047BB
:4027C00000E100E01F23184001238340181C014B1860704780E100E01F23184001238340181C014B1860704780E200E001BE704738B5041C0D1C1F2802D90020FFF7F6FF5C
:40280000A400024BE4182068256038BD4000002070B5041C0E1E032E02D90020FFF7E6FF1F2C02D90020FFF7E1FF03252540ED00063500F027FAA408A400064BE4182368C7
:402840000322AA409343AE40351C1D43256000F01DFA70BD00E400E070B5041C80252D02074E04E0306800F003FA064BE418AC42F8D8034B5868604300F0FAF970BDC046AE
:40288000D80000200080FFFF08B5034B1B7A584300F0EEF908BDC046D8000020F0B557464E464546E0B4041C00F0ECF98046E51E2D2D73D83F4B1B78DBB2A34208D33E4B82
:4028C0001B78DBB29A463D4B1B78DBB2994631E03B4B1B78DBB2A34208D33A4B1B78DBB29A46394B1B78DBB2994623E0374B1B78DBB2A34208D3364B1B78DBB29A46354B6C
:402900001B78DBB2994615E0334B1B78DBB2A34208D3324B1B78DBB29A46314B1B78DBB2994607E02F4B1B78DBB29A462E4B1B78DBB299462D4B5E5D2F2E09D92A2C07D9CC
:4029400019222B4B1A60052000F092F9192703E0274B1F683F231F40BE4206D2234B5A5D234B1A60052000F083F91F4AA4182278D2B2204B1A60204B52461A601F4B4A469A
:402980001A600520FFF780FFBE420AD9174B5A5D174B1A60052000F06BF902E00020FFF725FF404600F072F91CBC90469946A246F0BDC046C0F1FF0FC1F1FF0FC2F1FF0F4D
:4029C000C3F1FF0FC4F1FF0FC5F1FF0FC6F1FF0FC7F1FF0FC8F1FF0FC9F1FF0FCAF1FF0FCBF1FF0FCCF1FF0FCDF1FF0FE02E00002CFF0B4028FF0B401CFF0B4020FF0B4084
:402A0000044B1A68C0231B021A4201D0012000E00020704700010B4008B500F033F9044B1968C02212020A431A6000F02FF908BD00010B4010B500F025F9084B1968084AEC
:402A400011408024E4012143196019680A40802109020A431A6000F019F910BD00010B40FF3FFFFF38B5051C00F00CF9041CFFF7C7FF002803D0FFF7DDFF012200E0002239
:402A8000084B1D40084B1868084901400D431D601B68012A01D1FFF7BFFF201C00F0F6F838BDC0460404040010020B40FBFBFBFF10B5244B1B685A0715D5234B1B685A073E
:402AC0000ED5224B9C69042214401F490868A0430860996991439961DB68002B00D098470420FFF7BFFF174B1B685A0518D5164B1B685A0510D5154B9A698020C0001040B3
:402B0000114A1168814311609969114A0A409A611B69002B00D098478020C000FFF7A2FF084B1B685A030CD5074B1B685A0304D5064B5B69002B00D098478020C002FFF72F
:402B400091FF10BD10020B40E800002018010020FFFBFFFFF8B5314B1B68002B00D098472F4B1B78002B02D001222E4B1A602E4B1B68002B24D02D4B1B685A0720D52C4FD5
:402B80002C4E2D4D3C68013433680133A34200D100242B689C4205D1284B1B682022284B1A7006E0254B1968201CFFF755FA204B1C60244B1B681A07E4D10422224B1A600F
:402BC000224B1B68002B27D0214B1B689A0723D5204E214D2F1C32682B689A4214D03C6801341E4B1B68A34200D10024201CFFF7FBFA1B4B1860184B1C601A4B1B680F228B
:402C00001340082BE7D104E0174B1A6802218A431A600222154B1A60F8BDC0461001002051010020C00E07405C010020CC0F074070010020540100206C01002040030740F7
:402C40007801002008030740C00F07404C0100208C0F07407401002068010020600100204002074008020740880F0740800F07400230800804D0C0460138FDD1C046C04630
:402C8000C0467047EFF3108072B6704780F310887047C046C046C04670B50E4B0E4D0024ED1AAD101E1CAC4204D0A300F35898470134F8E700F0AEF9084B094D0024ED1A29
:402CC000AD101E1CAC4204D0A300F35898470134F8E770BD2030000020300000203000002830000010B50023934203D0CC5CC4540133F9E710BD031C8218934202D019702B
:402D00000133FAE7704710B5021C1378002B01D00132FAE7CC5CD4540133002CFAD110BD02780B7801300131002A01D09A42F7D0D01A70470023C25C0133002AFBD1581E81
:402D400070470000000000004E18000058180000621800006E1800007A18000084180000063030300D0A0000000000000300000007000000000000000200000010000000CF
:402D8000000000000000000000000000000000000000000000000000000000000800000034010020080000004001002000000000000000000000000000000000000000004D
:402DC0000400000000000000000000000000000000000000000000006279746573207673206563686F206E6F20736F6E20696775616C657328000000000000000000000041
:402E00000000000000000000000000000000000076730000290D0A002F3F210D0A0000004E6F206964656E74696669636174696F6E206D6573736167650D0A004964656E80
:402E400074696669636174696F6E204D65737361676520746F6F2073686F72740D0A0000456C20726573756C7461646F206E6F20657320656C20636F72726563746F2C2013
:402E8000707275656265206E756576616D656E74650D0A004E6F20736520686120656E636F6E747261646F20656C205354580D0A000000004C6120636F6D756E696361638F
:402EC000696F6E2066756520756E20657869746F210D0A0000300F40000400400F400004030405060708090A0B0C0E0F101112131415161718191B1C1D1E1F202122232521
:402F0000262728292A2B2E2F303132333435000000202020202020202020282828282820202020202020202020202020202020202088101010101010101010101010101082
:402F40001004040404040404040404101010101010104141414141410101010101010101010101010101010101010101101010101010424242424242020202020202020213
:402F80000202020202020202020202021010101020000000000000000000000000000000000000000000000000000000000000000000000000000000000000000000000099
:402FC00000000000000000000000000000000000000000000000000000000000000000000000000000000000000000000000000000000000000000000000000000000000D1
:403000000000000000000000000000000000000000000000F8B5C046F8BC08BC9E467047A9170000AD1C0000F8B5C046F8BC08BC9E4670478117000048300000D00000207B
:4030400020000000B000000000000000FF0000000000E02EC05D00001800000000366E0104040400102F00000000000000000000000000000000000000000000000000004E
:403080000000000000000000000000000000000000000000000000000000000000000000000000000000000000000000000000000000000000000000000000000000000010
:4030C00000000000000000000000000000000000000000000000000000000000000000000000000000000000000000000000000000000000000000000000000000000000D0
:40310000000000000000000000000000000000000000000000000000000000000000000000000000000000000000000000000000000000000000000000000000000000008F
:40314000000000000000000000000000000000000000000000000000000000000000000000000000000000000000000000000000000000000000000000000000000000004F
:407FC00011111600002B000000801A000000000000000000000000000000000000000000000000000000000000000000000000000000000000000000000000000000000084
:0200000490303A
:02000000BD4001
:0200000490402A
:200000000000000000000000000000000000000000000000000000000000000000000000E0
:0200000490501A
:0C000000000204C81193110104D6CED3F5
:0200000490600A
:0100000001FE
:00000001FF