:400000000010002011000000910100009101000008B500F0D5F900F0BDF8C04610B5124C22688023DB0213432360182000F0F0FD22680E4B134023600D4A0E4B1A60102205
:400040000D4B1A60802212060C4B1A600C4A0D4B1A6009200C4900F079FD092000F060FD00220A4B1A6010BD00010B40FFFFFBFF0600008004010B400802024008010B4029
:400080000E00008000000240250E00000C020B4038B572B600241C4D0CE063001B195B00EB1899881A8858880004104300F0C4F80134E4B2012CF0D9EE221202134B1A60FE
:4000C000EE22134B1A6099221204124B1A60124B197802220A431A70104A11783C208143142001431170197816220A431A70D82212010B4B1A6003220A4B1A6024220A4B7F
:400100001A60FFF78BFF38BD081500000C0001401000014030500F4000700F4001700F4008030440000404400804044010B5064C2378002B07D1054B002B02D0044800E0B2
:4001400000BF0123237010BDF0000020000000000415000008B5084B002B03D00748084900E000BF07480368002B03D0064B002B00D0984708BDC0460000000004150000FF
:40018000F4000020D00000200000000062B6FEE7FEE7C046F8B50F4F0F4E002412E031687368B568221C02E001C901C30432AA42FAD1F168221C01E010C304328A42FBD190
:4001C0001036013F002FEAD101F060F9FFF7DEFFFEE7C04601000000C815000038B50023104C114D114808E0032B02D89A00515900E0211C9A00115001332F2BF4D9FFF7E9
:4002000047FF00220A4B1A600A4B1B68002B01D1084B1A608023DB05196801220A431A6038BDC046910100000000000000000020C8000020C000002008B50A1C002101F08D
:4002400054F908BD002306E04218013A1278D3189BB2013989B20029F6D15B4298B270470047C046F0B583B00C1C6E46F280063601230B704870151CA270130ACB70171D34
:40028000B9B2201CFFF7DEFFE0556B1D000AE054AB1D1722E2540735A9B2201C321C962300F012FB03B0F0BD70B5051C0E1C141C002802D0002000F047FC0020A91903E0A9
:4002C000013C0A5D1318D8B2002CF9D170BDC04608B50A283FD880002E4B1B589F46C90149422D4BC91801233AE0C90149422B4BC918042334E0C9014942294BC918022383
:400300002EE0C9014942274BC918042328E0C9014942254BC918012322E0C9014942234BC91801231CE0C9014942214BC918022316E0C90149421F4BC918022310E0C9010C
:4003400049421D4BC91802230AE0C90149421B4BC918042304E0002000F0F6FB02230021012B02D10878C0B200E00020022B03D10A78487800021043042B09D10B784878D7
:40038000000218438B781B041843CB781B06184308BDC04614150000C07F0000C17F0000C57F0000C97F0000D07F0000D17F0000D67F0000D27F0000D47F0000D87F0000B6
:4003C00008B50D4B1B68DA0602D400220B4B1A600A4B1B68802B0ED10022084B1A6002200021FFF775FF002805D002200021FFF76FFFFFF735FF08BD00030B40C0000020FE
:40040000F0B5474680B4804603204146FFF760FF461CF60104204146FFF75AFF361803204146FFF755FF431CDB0100240027012108E01A78551EEDB2FD2D00D80F1CA418DF
:40044000E4B20133B342F4D36442E4B201204146FFF73EFF844203D1002F03D1062002E0062000E0002004BC9046F0BDF0B55F4656464D464446F0B4C34CA544041C00F022
:40048000CBF962B600270A250020BB468046BF4A9246002C01D1FF2300E0231C50A896214900BB4A6A4400F0CFF9002C01D0013DEDB2002D01D00028EBD1002800D071E19A
:4004C000B34B6B441B88062B22D950AA1278012A20D150AAD0780002917808438046011C0531565C36020139525C1643021C07329A4211D8031C063350AAD35C172B0DD147
:4005000089B2101CFFF79EFEB04209D1002608E0042606E0042604E0032602E0042600E00826002E00D0EEE050AB187981465A78131C313BD9B20A2900D9E6E08B0051467C
:40054000CB589F46012F00D0E2E04246002A00D0E1E00020FFF754FF4242424150AB1A7101220CE1012F00D0D8E04346012B00D0D7E0002800D0D7E0864B1B681A68D30B11
:40058000DBB2994502D15204120E05E0994501D9002201E08022520050AB1A71120A5A71FF229A710022DA710422E8E0342A0DD1012F00D0BBE04146032900D0BAE005A85E
:4005C0000021802200F091FF80229346012F00D0B3E04346022B00D8B2E005A9081C58444246033A3431FF3100F076FF5B4643449BB2832B00D0A6E050AB987900025B7902
:40060000034349460802C01880B2624B1B681A68D3099BB2510601D001339BB2984200D298E005A900F0B4F9002800D00A260022934680239846A2E0012F00D1B0E00426FD
:4006400000229CE0012F00D08BE05B46434496225200934200D987E005A9081C584451A9424600F039FF5B4643449BB29B46002285E04346002B7AD103AB474981C981C36A
:4006800051AB03AA81CA81C30127082277E0012F70D14146032970D150AB9A7912025B791A4300920102009BC918C90100208022FFF7FAFD0190031C4846002811D1009936
:4006C000FF290ED105200021FFF702FE019A101AC0B2814606200021FFF7FAFD49460B1ADBB25B4250AA1371012248E00020FFF787FE002802D18023284A136000F05AFA7C
:40070000042600223BE0002239E00526002236E00426002233E00426002230E0042600222DE0042600222AE00426002227E00426002224E00426002221E0042600221EE010
:40074000042600221BE000239B46802080460326002214E000218B46802290460A2600220DE0042600220AE00326002207E00426002204E00426002201E004260022301C83
:4007800050A9FFF76FFD0DE08CFDFFFF401500006E020000D40000206C150000C000002000239B46002C00D173E6012F00D170E69D239B009D443CBC90469946A246AB46DD
:4007C000F0BDC0460F4B1B685A0619D50E4B1B68DA060BD50D4B1B68002B11D00C4A136000230C4A1360094A136009E0094B1A68074B1B689A4203D0054B1A68054B1A603E
:400800007047C0464C0F0640640006400C010020D4010020B801002010B5094C201D402100F088F8201C4430002100F065F8054800F070FB0023236000F05CFB10BDC04607
:400840000C010020C5070000F8B54F464646C0B480460F1C9146002828D0002928D09C00E4186400154E10251CE033782B4215D0134B1A6849460A80002210490A701A603F
:400880004A4613881A1CBB4200D93A1C92B240460C49043100F020FE00200AE0012000F095F9013C002CE0D1102002E0012000E001200CBC90469946F8BDC046BD0100203C
:4008C000CC0100200C01002038B5031C0C1C00280CD000290CD01180064D281C4430191C221C00F0F9FD2C60002002E0012000E0012038BD0C01002038B5041C0D1C00287C
:400900000ED00A2000F016F9064B1C60064B1D600023064A1360064A13600A2000F000F938BDC046C4010020D4010020B8010020C801002038B5041C0D1C00280CD00A205E
:4009400000F0F8F8054B1C60054B1D600022054B1A600A2000F0E4F838BDC046D0010020C0010020CC010020024B1A68024B1A600020704708010B4090010020024B1A6821
:40098000024B1A60002070479001002008010B40F0B5474680B4A4B0061C002323932293FF2800D9A5E0002900D1A2E002A8802200F092FD022300240021002508E09A004D
:4009C00068461258002A02D0891814431D1C0133212BF4D9002902D1002C02D102E0002400E00124002C05D0AB0069465F5800225A5000E00027424B00937F230193414B98
:400A000000AA1A604049414A11601B681B0F0A2B04D03C4B1B680F22134000E000232393239B002B67D100F011FB8046FFF79CFF2290239B002B16D1354B0093009A330436
:400A4000134300932F4B00A8186032492F4A11601B681B0F0A2B04D02A4B1B680F22134000E000232393239B002B38D1002C36D002A80021802200F038FDAD0069466F50D2
:400A80001F4B00937F2301931E4B00AA1A601E491E4A11601B681B0F0A2B04D0194B1B680F22134000E000232393239B002B16D1194B0093009B36041E430096114B00A8C5
:400AC00018601649114A11601B681B0F0A2B04D00C4B1B680F22134000E000232393229B002B02D1FFF74AFF2290404600F0B2FA01E004232393239824B004BC9046F0BD28
:400B0000B6D70000080000400400008004000040B6D8000005000080B6D90000060000801F23184001238340181C014B1860704700E100E01F23184001238340181C014BFE
:400B40001860704780E100E001BE704738B5041C0D1C1F2802D90020FFF7F6FFA400024BE4182068256038BD4000002070B5041C0E1E032E02D90020FFF7E6FF1F2C02D93F
:400B80000020FFF7E1FF03252540ED00063500F05DFAA408A400064BE41823680322AA409343AE40351C1D43256000F053FA70BD00E400E0034B1A681204120C02490A4348
:400BC0001A6070470CED00E00400FA0570B5041C80252D02074E04E0306800F02DFA064BE418AC42F8D8034B5868604300F024FA70BDC046DC0000200080FFFF08B5034B65
:400C00001B7A584300F018FA08BDC046DC000020F0B557464E464546E0B4041C00F016FA8046E51E2D2D73D83F4B1B78DBB2A34208D33E4B1B78DBB29A463D4B1B78DBB29D
:400C4000994631E03B4B1B78DBB2A34208D33A4B1B78DBB29A46394B1B78DBB2994623E0374B1B78DBB2A34208D3364B1B78DBB29A46354B1B78DBB2994615E0334B1B78AB
:400C8000DBB2A34208D3324B1B78DBB29A46314B1B78DBB2994607E02F4B1B78DBB29A462E4B1B78DBB299462D4B5E5D2F2E09D92A2C07D919222B4B1A60052000F0BCF979
:400CC000192703E0274B1F683F231F40BE4206D2234B5A5D234B1A60052000F0ADF91F4AA4182278D2B2204B1A60204B52461A601F4B4A461A600520FFF780FFBE420AD9E1
:400D0000174B5A5D174B1A60052000F095F902E00020FFF719FF404600F09CF91CBC90469946A246F0BDC046C0F1FF0FC1F1FF0FC2F1FF0FC3F1FF0FC4F1FF0FC5F1FF0F4F
:400D4000C6F1FF0FC7F1FF0FC8F1FF0FC9F1FF0FCAF1FF0FCBF1FF0FCCF1FF0FCDF1FF0F741500002CFF0B4028FF0B401CFF0B4020FF0B40044B1A68C0231B021A4201D0F0
:400D8000012000E00020704700010B4008B500F05DF9044B1968C02212020A431A6000F059F908BD00010B4010B500F04FF9084B1968084A11408024E401214319601968D1
:400DC0000A40802109020A431A6000F043F910BD00010B40FF3FFFFF38B5051C00F036F9041CFFF7C7FF002803D0FFF7DDFF012200E00022084B1D40084B186808490140A5
:400E00000D431D601B68012A01D1FFF7BFFF201C00F020F938BDC0460404040010020B40FBFBFBFF10B5244B1B685A0715D5234B1B685A070ED5224B9C69042214401F498D
:400E40000868A0430860996991439961DB68002B00D098470420FFF7BFFF174B1B685A0518D5164B1B685A0510D5154B9A698020C0001040114A1168814311609969114A20
:400E80000A409A611B69002B00D098478020C000FFF7A2FF084B1B685A030CD5074B1B685A0304D5064B5B69002B00D098478020C002FFF791FF10BD10020B40EC0000206C
:400EC00094010020FFFBFFFF08B50A20FFF728FE08BDC04608B500F041F808BD08B5044B1968802212060A431A60FFF7EDFF08BD0000064008B5064B1B78002B04D1FFF73A
:400F0000E9FF0122024B1A70FFF7E8FF08BDC046B0010020014B58607047C046B00100200A4B1B68DA050DD5094B1B685A0409D4064B1968074A0A401A60196880225200BD
:400F40000A431A600222044B1A6070470000064060000640FFFEFFFF6C00064010B51E4B19680C220A431A6000241C4B1C601C4A1C4B1A601C4B1D4A13601D4A14601D49F9
:400F80001D4A11601D4A13601D4B1C600A20FFF7D1FD0A200321FFF7E9FD0A201949FFF7D5FD194B1C60194B1C604C22FF32184B1A60184B1C60184B1C60184B1C60102224
:400FC000174B1A70174B1C70174B1C60174B1C60174B1C7010BDC046700006400000064077080040600006400701008000030640040306401000FE0010030640000206406C
:401000000402064061100000C80E0640880E0640480F0640080F0640C80F0640880F0640D8010020BD010020B8010020CC010020BC010020000000000230800804D0C046F9
:401040000138FDD1C046C046C0467047EFF3108072B6704780F310887047C046C046C046F0B5474680B4C34B1B68002B00D09847C14B1B68D80702D50022C04B1A60C04BB3
:401080001B7899061FD4BF4B1A680223FF331A4219D0BB4B1B78DA0709D5BB4B1A7802218A431A70197809220A431A7008E0B64B1A7820218A431A70197890220A431A70B9
:4010C0000022AF4B1A70AE4B1B78980600D5BCE1AB4B1B78D90600D490E1AA4B1B689A073ED50222A94B1A60A94B1A680F210A401B68180401D5012300E00023D318A54ADD
:401100001278D2B29A4205D99F4B197804220A431A7006E09F4A1278D31A9F4A11685B1813609D4B1A689D4B1A6000239C4A1360984A13709B4B1968802252020A431A6010
:401140001968994A0A401A608F4B1A7802218A431A70197801220A431A701022884B1A70884B1B68190739D50822884B1A608F4B1B689A040AD416E01A6831688A1829682F
:40118000C9B211701A6801321A6004E0884C0F20884B894E894D22681042EDD1834B1968874A0A401A60874B1B689A0604D5764B197840220A431A700022834B1A60834A8F
:4011C000804B1A60704B1A7820218A431A70197810220A431A706A4B10221A70694B1B68580641D501227A4B1A607A4B1B68D9060FD510226A4B1A60684B1A68664B1A60E1
:40120000614B197802220A431A7012225C4B1A7024E0714B1A68674B1B68D31A072B03D80422694B1A6011E0082B06D15F4B1968A02212020A431A6008E05C4B19688022D7
:4012400092010A431A6008225F4B1A604E4B197820220A431A701122494B1A705F4A4B4B1A6001225E4B1A605E4B1B681A072BD5594B1A684F4B1B68D31A083B082B02D965
:40128000002608230CE001260AE01168286841182068C0B20870116801311160013B02E0444A454D454C002BEFD1002E08D03F4B1968802212020A431A600022424B1A607F
:4012C0000822404B1A6023E0464B1B6859071FD53A4B1968374B1A683F4B1B689A420DD201223F4B1A60334B1A68334800688218C9B211701A6801321A6006E0FFF710FEC9
:40130000214B197840220A431A7004222D4B1A60354B1B68DA061CD497E032682B689A420AD20B683A68D3181A78D2B22F4B1A600B6801330B6015E0FF222C4B1A60624665
:4013400013789A060ED4424613780133DBB2137008E00F4C0F20104E254D0E4B9C469846311C244F23680340082BD6D11022224B1A606AE0B40100208C0E0640880E064052
:40138000D80100204C0F0640BD010020400F064008020640BC010020C8010020B8010020880F064004020640FFFFFEFF6000064008030640CC010020D001002040030640AF
:4013C000FF5FFFFFC00F0640C80F0640ED0F0000800E064064000640C0010020FF0F00006C000640CC0F06408C0F064040020640D4010020C4010020800F0640144B1A682A
:40140000520052081A601021124A1170124A10681249014011601068114901401160002210490A6010490A601049114A11601149114A11601149124A11601249124A1160D1
:401440001968802212060A431A6004BC9046F0BD00000640D801002060000640FF5FFFFFFFFCFFFFC80F0640880F0640ED0F0000800F0640F3070000C00F0640FF0F000005
:40148000400F064017030000000F064070B50E4B0E4D0024ED1AAD101E1CAC4204D0A300F35898470134F8E700F07CF8084B094D0024ED1AAD101E1CAC4204D0A300F358AB
:4014C00098470134F8E770BDB0150000B0150000B0150000B815000010B50023934203D0CC5CC4540133F9E710BD031C8218934202D019700133FAE770470000F81500003D
:401500006C0000000000000000300F40000400400F40000456030000DE020000EA020000F6020000020300000E0300001A03000032030000260300003E0300004A030000ED
:4015400044050000640500000A070000AC050000380600000A0700004406000072060000AC0500008E060000EC0600009311C804111E0101030405060708090A0B0C0E0FA6
:40158000101112131415161718191B1C1D1E1F2021222325262728292A2B2E2F3031323334350000F8B5C046F8BC08BC9E46704755010000DD010000F8B5C046F8BC08BC7E
:4015C0009E4670472D010000D8150000D000002020000000F000000000000000FC140000001500000000E02EC05D00001800000000366E010404040000000000000000001C
:401600000010002011160000B11D0000B11D000008B5024B83F3088800F0E4FB0010002010B5154C22688023DB0213432360182001F0D8F92268114B13402360104A114B33
:401640001A602022104B1A601022104B1A6080231B060F4A13600F4A13600F4A0F4B1A6009200F4901F068F9092001F045F900220C4B1A6010BDC04600010B40FFFFFBFF14
:401680000600008004010B40080202400C02024008010B4000000240CF00008040000240F92B00000C020B4038B572B60024254D0CE063001B195B00EB1899881A885888A5
:4016C0000004104300F0E0FB0134E4B2012CF0D9FF2212041C4B1A60EE2212021B4B1A6099221B4B1A6099231B041A4A13601A4A13601A4B1878022202210143197018495D
:4017000008783C24A0431424204308701878162101431970302313490B60802040011249086012490B60D8210901114B1960114B1A603121104B1960104B1A60FFF770FFAD
:4017400038BDC04620330000000001400C0001401000014000500F4030500F4000700F4001700F40000004400800044018000440080304400004044008040440180404401C
:4017800010B5064C2378002B07D1054B002B02D0044800E000BF0123237010BD58010020000000007030000008B5084B002B03D00748084900E000BF07480368002B03D09A
:4017C000064B002B00D0984708BDC04600000000703000005C010020D00000200000000008B53138C3B2052B23D89800134B1B589F461348002101F059F81EE0114800219C
:4018000001F054F819E09C208000002101F04EF813E03820FF30002101F048F80DE09B20002101F043F808E04D20002101F03EF803E00548002101F039F808BD74300000A4
:40184000C3090000E10400008713000070B5051C161C081C111C01F03BFB002307E05C1C9B00E8500020311C01F032FB231C0028F5D19B00ED1800232B6070BDF0B5474673
:4018800080B482B0071C8846141C1D1C081C01F017FB461E002201AB1A8000233B70002D01DDB54204DD002D0DDA761901360AE02E1C08E04246135D2B70381C291C01F0B1
:4018C000E8FA013400E001ADB442F3DD02B004BC9046F0BDF0B58BB0041C0E1C171C00230093019302930393049305936A46137607A8211C164AFFF7A9FF079B1B78002B04
:4019000024D068460899002203235B42FFF7B6FF002517E02068079901F0C8FA002810D16168381C01F0B5FA381C01F0C9FA38180849022201F09CFA381C694601F0A9FA2C
:4019400004E00135AB00F458002CE3D10BB0F0BD8031000084310000F0B583B0071CFA26B6004E43002201AB1A8000230370341C01AD00F091FB002808D000F09FFE2870A9
:40198000381C291C01F085FA341C03E0052001F01FF8053C2B780A2B01D0002CE9DA102003B0F0BDF0B557464E464546E0B481460E1CFA27BF0057433D1C002410239A4665
:4019C000A04611E000F068FB002809D0651CADB24C4400F089FE20702C1C3D1CC24603E0052000F0F5FF053DB44201D2002DE9DA50461CBC90469946A246F0BDF0B55746BB
:401A00004E464546E0B490B0061C884601F058FAC0B281460DAD00230D930E932B8128486A46041C83CC83C283CC83C221681160A08890806A46D383138453849384D38401
:401A4000138553859385D385138600F04BFB00F085FB301C00F078FE404600F0A1FF4B465FB2B9B2281C174AFFF79CFF281C311C01F01CFA00281CD06846311C01F009FAA1
:401A8000684601F01DFA00AF38180F49032201F0EFF968460DA901F0FCF9684601F010FA00A908180949042201F0E2F9684600F0F1FE10B01CBC90469946A246F0BDC046A6
:401AC00094300000DC050000883100008C310000F0B5474680B48B4CA544804688AD0024889489948A948B948C948D948E948F94869486AB9C8081948294839484948594B0
:401B00007FA88149072201F0B3F97EAB1C801A941BA80021C622520001F0B3F917A97B4B1A1C3432C1CAC1C114A91A1C4032C1CAC1C111A91A1C4C32C1CAC1C10EA91A1CB7
:401B40005832C1CAC1C10BA91A1C6432C1CAC1C108AA7033C1CBC1C217AB019314AB029311AB03930EAB04930BAB059308AB0693079400F0F5F93020FFF732FE00F0CCF953
:401B8000C82000F00DFF6248C821FFF737FFC82000F006FF281C5F49FFF7DEFE2B78002B01D02F2B03D000F0DBF90420A3E088A801F086F9062803D800F0D2F903209AE0AF
:401BC00088ABDB78544A1268D3185B7803221340022B01D0C82400E0142488AD86A8291C01220423FFF74AFE6B795C2B07D181A888A9072202235B42FFF740FE06E081A814
:401C000088A9052202235B42FFF738FE88AB1D797FA8857024B2211CFFF7F0FE00F0A0F9281CFFF7DDFD00F077F900F05BFA201C00F0B6FE7EAC201C0121384AFFF7B2FEB0
:401C40000023404603702378022B53D17EA80121304AFFF7A7FE7EA800F01CFE00242D4F2F4D1AE05C407EA801213A1CFFF79AFE40467EA901F00DF97EA8291C01F016F9E2
:401C8000002807D1404601A91AAAFFF723FE0023424613707EA800F0FDFD7EAB1B78212BE0D109E05C407EA801212A1CFFF77AFE7EA800F0EFFD00E0164D7EAB1B78032B72
:401CC000F0D15C407EAD281C0121124AFFF76AFE2B78A34204D000234646337002200AE000F03EF90F4800F0D5FD1AA800F0D2FD002000E0012090239B009D4404BC9046DB
:401D0000F0BDC046C0FDFFFF8C3000009430000090310000DC050000F0000020980800009431000098310000F0B59BB062B61A487C3000F03FFB00F003F900F033FD002366
:401D4000019302A80021602201F09BF8134F144E144D00F089FD7A28FBD101A8FFF7B8FE041E042C02D1104800F094FD032C02D10E4800F08FFD022C02D1281C00F08AFD12
:401D8000012C02D1301C00F085FD002CE1D1381C00F080FDDDE7C046943000004832000028320000F4310000B4310000D0310000FEE7C04608B5094B1B681818084A821ABC
:401DC000802A02DC054A106005E001F025F80C23036001235B42181C08BDC046D400002010020020F8B50F4F0F4E002412E031687368B568221C02E001C901C30432AA4252
:401E0000FAD1F168221C01E010C304328A42FBD11036013F002FEAD101F004F8FFF784FFFEE7C046010000008434000038B50023104C114D114808E0032B02D89A005159ED
:401E400000E0211C9A00115001332F2BF4D9FFF72BFC00220A4B1A600A4B1B68002B01D1084B1A608023DB05196801220A431A6038BDC046B11D0000001600000000002052
:401E8000C8000020C000002008B50A1C002100F0F8FF08BD08B5044B1B78002B02D00B2000F02AFD08BDC046B801002008B5064B1B78022B02D100F071FA03E0042B01D148
:401EC00000F0CEFB08BDC046D800002008B50B4B1B78012B02D100F0D9F80DE0082B02D100F03EFC08E0022B02D100F05DFA03E0042B01D100F0C8FB08BDC046D80000205A
:401F0000034B1B78FF2B02D10022024B1A707047D80000207401002008B5074B1B78FF2B09D0064B1968802212060A431A60FFF7B1FFFFF7BBFF08BDD80000200000074034
:401F400008B5064B1B78002B04D1FFF7D9FF0122024B1A70FFF7E0FF08BDC0467401002008B50B2000F0D2FCFFF7B0FF054B1A68520052081A600022034B1A600B2000F07B
:401F8000CFFC08BD00000740880F074070B58EB00023002505E09C0007AEA5516E46A5510133062BF7D9012801D0082807D10E2307930893042300930193002429E00228A9
:401FC00010D10F2307930893002905D1012300930623019302241CE00623009301230193012416E0012905D1092308930423019300240EE0D00703D50923079301230093B5
:40200000910705D50923089306230193022400E000241A4B19681A4A0A40079E31040A431A600099C8B200F04BFCE30705D5154B196810220A431A6004E0124B1A6810216F
:402040008A431A600D4B19680F4A0A40089E31050A431A600199C8B200F040FC0223234205D0084B196820220A431A6004E0054B1A6820218A431A600EB070BD0000014014
:40208000FFFFF0FF18000440FFFF0FFF1022014B1A707047D40100200D4B1B68002B11D00C4B1B680C4A1268934203D30A4A1068181A0BE0084A126808490868801AC318F0
:4020C000581C03E0064B1B680F2018407047C046CC010020E0010020DC010020C40100200803074008B5154B1B68002B1AD00B2000F00CFC124B1A68124B1A600022124B42
:402100001A70124B1968802252020A431A6019680F4A0A401A600F4A0F4B1A600B2000F0EBFB09E0094B1968802252020A431A601968074A0A401A6008BDC046CC010020E5
:40214000DC010020E0010020E801002004030740FFFFFEFFED0F0000C00F074008B5164B1B68002B1CD00B2000F0D0FB134B1A68134B1A60134B1A6802218A431A60124B00
:402180001968802252020A431A6019680F4A0A401A600F4A0F4B1A600B2000F0ADFB09E0094B1968802252020A431A601968074A0A401A6008BDC046BC010020D8010020A1
:4021C000E4010020880F074004020740FFFFFEFFF3070000800F074010B50B4B1B78082B05D10A4B1B681818C9B201700BE04000064B1C682218CCB2147001301B68181819
:4022000089B2090A017010BDBA010020CC0100200A490978082905D1094B1A6810180078C0B209E0064B1B6842009918097801329B181878000208437047C046BA010020FB
:40224000CC01002010B50F4B1B68002B14D00E4B1A680E4B1B689A4211D00C4B1C6801340B4B1B680133A34200D10024201CFFF7CFFF064B1C6003E0064B186800E00020D4
:4022800010BDC046CC010020E0010020DC010020C40100204003074010B50B4B1B78082B05D10A4B1B681818C9B201700BE04000064B1C682218CCB2147001301B68181826
:4022C00089B2090A017010BDC8010020BC01002038B5011C1C4B1B68002B2CD01B4B1A681B4B1B689A4208D11A4B1B680F221340082B02D0184B186025E0144B1C68013482
:40230000164B1B68A34200D10024114A13689C42FCD00225124B1D60201CFFF7BDFF0B4B1C60104B1B681D420DD10E4B196802220A431A6007E007480F2203681340082B66
:40234000FBD0054B196038BDBC010020E4010020D80100200802074040020740D0010020800F0740880F07400A490978082905D1094B1A6810180078C0B209E0064B1B68FA
:4023800042009918097801329B181878000208437047C046C8010020BC010020014B1B687047C04620000740014B1B687047C0462000074010B5041E03D1002000F0BAFAFE
:4023C0000FE1042021686268FFF7E0FD0422854B1A70854B206B1870844B616D1970844BA26B1A60227A834B1A70FF23606B1840814908608149206C086081490A70E16B0B
:402400000B40804A13602268022A29D1A369002B22D06369102B1DD0202B19D0302B15D0602B11D0C02B0DD0C0229200934207D0C022D200934201D106220EE000220CE000
:4024400005220AE0042208E0032206E0022204E0012202E0002200E010226B4B1A6005E06369013B0F221A40674B1A60664B1B68A06C002801D0654A01E0802292041A43BF
:40248000614B1A6021680B06C02292041A40604B1A602369013B07221A40636A002B01D0402300E000231A43606C002802D08023DB0000E000231A43A16A002902D0802341
:4024C0005B0000E000231A43E36A002B02D080239B0000E000231A434E4B1A60E368022B09D04C4A1268002B01D0302300E020231A43484B1A60A368013B0F221A40E069CE
:40250000002802D080239B0000E000231A436168C90702D580231B0600E000231A433E4B1A600723E16D19403C4A1160FF22E06C0240216D0804FF21090401401143384A17
:4025400011602269013A1340226A002A02D08022520000E000221343324A1360E368022B08D01268002B01D0302300E020231A432C4B1A60A368013B0F221A4063689B0745
:4025800002D580231B0600E000231A43264B1A600722606E0240254B1A600B2000F0B6F90B20032100F0D8F90B20214900F0C4F90023204A1360204A1360204A1360204AD2
:4025C0001360204AA16D1160216E1F4A11601F4A13601F4A13601F4A13701F4A13601F4A136010BDD8000020C1010020B8010020CC010020BA010020C4010020BC010020B0
:40260000C8010020D0010020000007400000010240000740480007400003074004030740100307404400074000020740040207409D2C0000880E0740C80E0740480F0740EC
:40264000080F0740C80F0740880F0740E0010020DC010020E8010020E4010020D8010020064B1B689B035B0F07D0054B1968054A0A40902109040A431A6070470800044056
:4026800000000140FFFF0FFF074B1B689B035B0F04D0064B1968064A0A401A60054B1968054A0A401A6070470800044000000140FFFF0FFF48000740FFDFFFFF08B5FFF7E4
:4026C000EBFC002802D0FFF7BDFD00E00020054B1A68D8239B001A4203D01A1C014B1A60002008BDC00F074010B5144B1B68002B02D00B2000F00AF9FFF7CEFC00280AD037
:402700000E4B1B68002B02D00B2000F0F5F8FFF799FD041C08E00A4B1C68084B1B68002B02D00B2000F0E8F8064B1868D822920010401A600002204310BDC046CC01002031
:4027400040030740C00F074038B5051C002402E0FFF7BEFD0134285D0028F9D138BDC046044B1B78002B01D0022200E00022024B1A707047C2010020F201002008B500F018
:4027800069F808BD08B500F01DF808BD08B5044B1968802212060A431A60FFF7EFFF08BD0000064008B5064B1B78002B04D1FFF7E9FF0122024B1A70FFF7E8FF08BDC0464E
:4027C0007C01002010B5124A124B1A600023124A13602121114A1160114A12480260072411480460114803601148016011490A60114A1360114A1360114A1360114A1360D3
:40280000114A1360114A1360114A136010BDC0460B00000200000640400006404800064006000080000306400403064010030640440006400002064004020640880E064085
:40284000C80E0640480F0640080F0640C80F0640880F0640034B1A68F0218A4390210A431A6070471000014008B500F0ABFA002802D000F0A1FA00E00020054B1A68D82376
:402880009B001A4203D01A1C014B1A60002008BDC00F064038B5051C002402E000F09AFA0134285D0028F9D138BDC046034B1A68120C1204104318607047C046000002404B
:4028C000044B1968044A11400203081C104318607047C04608000440FF8FFFFF044B1968044A1140C203081C104318607047C04608000440FF7FFCFF1F23184001238340BA
:40290000181C014B1860704700E100E01F23184001238340181C014B1860704780E100E01F23184001238340181C014B1860704780E200E001BE704738B5041C0D1C1F2851
:4029400002D90020FFF7F6FFA400024BE4182068256038BD4000002070B5041C0E1E032E02D90020FFF7E6FF1F2C02D90020FFF7E1FF03252540ED00063500F043FAA40800
:40298000A400064BE41823680322AA409343AE40351C1D43256000F039FA70BD00E400E070B5041C80252D02074E04E0306800F01FFA064BE418AC42F8D8034B58686043CF
:4029C00000F016FA70BDC046DC0000200080FFFF08B5034B1B7A584300F00AFA08BDC046DC000020F0B557464E464546E0B4041C00F008FA8046E51E2D2D73D83F4B1B78A2
:402A0000DBB2A34208D33E4B1B78DBB29A463D4B1B78DBB2994631E03B4B1B78DBB2A34208D33A4B1B78DBB29A46394B1B78DBB2994623E0374B1B78DBB2A34208D3364BD4
:402A40001B78DBB29A46354B1B78DBB2994615E0334B1B78DBB2A34208D3324B1B78DBB29A46314B1B78DBB2994607E02F4B1B78DBB29A462E4B1B78DBB299462D4B5E5D80
:402A80002F2E09D92A2C07D919222B4B1A60052000F0AEF9192703E0274B1F683F231F40BE4206D2234B5A5D234B1A60052000F09FF91F4AA4182278D2B2204B1A60204BB8
:402AC00052461A601F4B4A461A600520FFF780FFBE420AD9174B5A5D174B1A60052000F087F902E00020FFF725FF404600F08EF91CBC90469946A246F0BDC046C0F1FF0F49
:402B0000C1F1FF0FC2F1FF0FC3F1FF0FC4F1FF0FC5F1FF0FC6F1FF0FC7F1FF0FC8F1FF0FC9F1FF0FCAF1FF0FCBF1FF0FCCF1FF0FCDF1FF0F2C3300002CFF0B4028FF0B4040
:402B40001CFF0B4020FF0B40044B1A68C0231B021A4201D0012000E00020704700010B4008B500F04FF9044B1968C02212020A431A6000F04BF908BD00010B4010B500F0E7
:402B800041F9084B1968084A11408024E4012143196019680A40802109020A431A6000F035F910BD00010B40FF3FFFFF38B5051C00F028F9041CFFF7C7FF002803D0FFF761
:402BC000DDFF012200E00022084B1D40084B1868084901400D431D601B68012A01D1FFF7BFFF201C00F012F938BDC0460404040010020B40FBFBFBFF10B5244B1B685A071B
:402C000015D5234B1B685A070ED5224B9C69042214401F490868A0430860996991439961DB68002B00D098470420FFF7BFFF174B1B685A0518D5164B1B685A0510D5154BE8
:402C40009A698020C0001040114A1168814311609969114A0A409A611B69002B00D098478020C000FFF7A2FF084B1B685A030CD5074B1B685A0304D5064B5B69002B00D072
:402C800098478020C002FFF791FF10BD10020B40EC00002080010020FFFBFFFFF8B5314B1B68002B00D098472F4B1B78002B02D001222E4B1A602E4B1B68002B24D02D4B45
:402CC0001B685A0720D52C4F2C4E2D4D3C68013433680133A34200D100242B689C4205D1284B1B682022284B1A7006E0254B1968201CFFF771FA204B1C60244B1B681A0720
:402D0000E4D10422224B1A60224B1B68002B27D0214B1B689A0723D5204E214D2F1C32682B689A4214D03C6801341E4B1B68A34200D10024201CFFF717FB1B4B1860184BFF
:402D40001C601A4B1B680F221340082BE7D104E0174B1A6802218A431A600222154B1A60F8BDC04678010020C1010020C00E0740CC010020CC0F0740E0010020C401002010
:402D8000DC01002040030740E801002008030740C00F0740BC0100208C0F0740E4010020D8010020D00100204002074008020740880F0740800F0740014B18687047C04656
:402DC00040030640024B1B680F2018407047C0460803064004490F220B681340082BFBD0024B18607047C04608020640400206400230800804D0C0460138FDD1C046C046A2
:402E0000C0467047EFF3108072B6704780F310887047C046C046C046014B18687047C0465401002070B50E4B0E4D0024ED1AAD101E1CAC4204D0A300F35898470134F8E714
:402E400000F00EFB084B094D0024ED1AAD101E1CAC4204D0A300F35898470134F8E770BD6C3400006C3400006C3400007434000010B50023934203D0CC5CC4540133F9E752
:402E800010BD031C8218934202D019700133FAE7704710B5021C1378002B01D00132FAE7CC5CD4540133002CFAD110BD02780B7801300131002A01D09A42F7D0D01A70472B
:402EC0000023C25C0133002AFBD1581E70470000F8B5174B071C1D680E1CAC6D002C1FD1502000F055F8A8658460AB6D046044601C61DC60AB6D9C615C61AB6DDC629C6287
:402F0000AB6D5C631C63AB6DDC639C63AB6D5C641C64AB6DDC649C64AB6D1C77AB6D5C62AA6D381C311C012300F004F8F8BDC04654010020F0B5002802D11068002826D086
:402F40000578441C0E1C3778002F09D00136BD42F9D1002B01D0201CF2E71460037016E0002D09D11560281C11E02F78B74207D00135002FF9D11C1C631C26780D1CF4E7F5
:402F8000002E02D00021217000E0331C1360F0BD08B5034B011C186800F004F808BDC0465401002070B50323CD1C9D430835061C0C2D01D20C2501E0002D3FDB8D423DD385
:402FC000204B1C681A1C211C002913D00868431B0DD40B2B02D90B60CC181EE08C4202D1636813601AE0486860600C1C16E00C1C4968E9E7144C2068002803D1301C00F026
:4030000025F82060301C291C00F020F8431C15D0C41C03239C4384420AD12560201C0B300722231D9043C31A0BD05A42E25008E0211A301C00F00AF80130EED10C233360BF
:40304000002070BDA00100209C01002038B5074C0023051C081C2360FEF7ACFE431C03D12368002B00D02B6038BDC0460C02002000000000F2170000FC1700000618000014
:40308000121800001E18000028180000063030300D0A00006279746573207673206563686F206E6F20736F6E20696775616C65732800000000000000000000000000000035
:4030C0000000000000000000083300001833000000000000E8320000F832000000000000C8320000D832000000000000A8320000B8320000000000008832000098320000BA
:40310000000000006832000078320000000000000000000003000000070000000000000002000000100000000000000000000000000000000000000000000000000000002F
:403140000000000008000000A401002008000000B00100200000000000000000000000000000000000000000040000000000000000000000000000000000000000000000A5
:40318000280A00003A00000076730000290D0A002F3F210D0A0000004C6F73206461746F73206D61706561646F7320736F6E3A0D0A0000004E6F206964656E7469666963B4
:4031C0006174696F6E206D6573736167650D0A004964656E74696669636174696F6E204D65737361676520746F6F2073686F72740D0A0000456C20726573756C7461646F8C
:40320000206E6F20657320656C20636F72726563746F2C20707275656265206E756576616D656E74650D0A004E6F20736520686120656E636F6E747261646F20656C20539A
:4032400054580D0A000000004C6120636F6D756E69636163696F6E2066756520756E20657869746F21000000312D303A37312E372E302A3235350000436F727269656E74FA
:4032800065204C3300000000312D303A35312E372E302A3235350000436F727269656E7465204C3200000000312D303A33312E372E302A3235350000436F727269656E740F
:4032C00065204C3100000000312D303A31352E362E302A323535000044656D616E61204D6178696D61000000312D303A31352E382E302A3235350000456E657267696120C0
:403300004163746976610000312D303A302E302E312A32353500000073657269616C000000300F40000400400F400004030405060708090A0B0C0E0F101112131415161720
:4033400018191B1C1D1E1F2021222325262728292A2B2E2F303132333435000000202020202020202020282828282820202020202020202020202020202020202088101091
:403380001010101010101010101010101004040404040404040404101010101010104141414141410101010101010101010101010101010101010101101010101010424227
:4033C000424242420202020202020202020202020202020202020202101010102000000000000000000000000000000000000000000000000000000000000000000000003D
:40340000000000000000000000000000000000000000000000000000000000000000000000000000000000000000000000000000000000000000000000000000000000008C
:403440000000000000000000000000000000000000000000000000000000000000430000F8B5C046F8BC08BC9E467047A91700002D1E0000F8B5C046F8BC08BC9E46704772
:403480008117000098340000D000002088000000B8000000000000000000000010020020FF0000000000E02EC05D00001800000000366E01040404005C33000000000000C4
:4034C000000000000000000000000000000000000000000000000000000000005D34000000000000000000000000000000000000000000000000000000000000000000003B
:4035000000000000000000000000000000000000000000000000000000000000F4000020000000000000000000000000000000000000000000000000000000000000000077
:40354000000000000000000000000000000000000000000000000000000000000000000000000000000000000000000000000000000000000000000000000000000000004B
:40358000000000000000000000000000000000000000000000000000000000000000000000000000000000000000000000000000000000000000000000000000000000000B
:4035C00000000000000000000000000000000000000000000000000000000000000000000000000000000000000000000000000000000000000000000000000000000000CB
:40360000000000000000000000000000000000000000000000000000000000000000000000000000000000000000000000000000000000000000000000000000000000008A
:407FC00029111600002B000000801F000000000000000000000000000000000000000000000000000000000000000000000000000000000000000000000000000000000067
:0200000490303A
:02000000494570
:0200000490402A
:200000000000000000000000000000000000000000000000000000000000000000000000E0
:0200000490501A
:0C000000000204C81193110104D85AD862
:0200000490600A
:0100000001FE
:00000001FF