:400000000010002011000000350500003505000008B500F091FAC04610B5154C22688023DB0213432360182000F0CCFE2268114B13402360104A114B1A602022104B1A60CF
:400040001022104B1A6080231B060F4A13600F4A13600F4A0F4B1A6009200F4900F05CFE092000F039FE00220C4B1A6010BDC04600010B40FFFFFBFF0600008004010B40F5
:40008000080202400C02024008010B4000000240CF00008040000240D90F00000C020B4038B572B60024254D0CE063001B195B00EB1899881A8858880004104300F086FA06
:4000C0000134E4B2012CF0D9FF2212041C4B1A60EE2212021B4B1A6099221B4B1A6099231B041A4A13601A4A13601A4B18780222022101431970184908783C24A04314249A
:40010000204308701878162101431970302313490B60802040011249086012490B60D8210901114B1960114B1A603121104B1960104B1A60FFF770FF38BDC0464C1C00005B
:40014000000001400C0001401000014000500F4030500F4000700F4001700F400000044008000440180004400803044000040440080404401804044010B5064C2378002BA3
:4001800007D1054B002B02D0044800E000BF0123237010BDE800002000000000DC1A000008B5084B002B03D00748084900E000BF07480368002B03D0064B002B00D098477D
:4001C00008BDC04600000000DC1A0000EC000020C800002000000000F0B5474680B482B0071C8846141C1D1C00230370081C01F06DFC461E002D01DDB54203DD002D0CDAEB
:4002000076190AE02E1C08E04246135D2B70381C291C01F044FC013400E001ADB442F3DD02B004BC9046F0BD70B582B0051C0C1C114B1A7801AB1A70002303700F4E012C54
:4002400004D100F05BFC01AB187005E0022C03D100F0FAFC01AB1870281C01A901F01FFC01A8311C01F028FC002803D101AB1B78002BE4D002B070BD081C0000681B000088
:4002800010B50C1C00F050FC201C01F0BDF800F077FD10BD08B53138C3B2052B22D89800134B1B589F461348002100F0EFFC1DE01148002100F0EAFC18E01048002100F0EA
:4002C000E5FC13E09C204000002100F0DFFC0DE09C20002100F0DAFC08E04E20002100F0D5FC03E00648002100F0D0FC08BDC046E01A0000C4090000E20400007102000081
:4003000088130000F0B591B0051C08AC0023089309930A930B930C930D930E930F93069306AA93805A4B1B7805AA137004AA137003AA137002AA137001AA13703020FFF786
:40034000A9FF00F09FF9C82000F01AFD51485249FFF796FFC82000F013FD201C0121FFF763FF2378002B01D02F2B03D000F09AF904208AE008A801F0A9FB062803D800F0EE
:4003800091F9032081E008AB1B79444A1268D3185B7803221340022B01D0C82700E0142708AC06A8211C01220423FFF715FF63795C2B07D105A808A9072202235B42FFF735
:4003C0000BFF06E005A808A9052202235B42FFF703FF08AB1C7904AE347002A906230B7003A801F05CFB03A8311C01F058FB03A801F06CFB03AB18182949042201F03EFB0F
:40040000381C01F0AFF9011C03A8FFF739FF00F049F9201CFFF73EFF00F034F9381C00F0AFFC00232B7000F069FB02282CD100F065FB01AB1870002408E05C4001AE281CD4
:40044000311C01F02CFB00F059FB307001AB1B78212BF2D104E05C4000F050FB01AB187001AB1B78032BF6D15C4000F047FBC0B201AB1870A04203D000232B70022004E0D5
:4004800000F010F9002000E0012011B0F0BDC046081C00006C1B000000004843E4000020741B0000F0B583B062B61A4800F0A2F900F068FB184B1A7801AB1A70174D184FBF
:4004C000184E00F0C1FB7A281CD101A8FFF71AFF041E042C02D1144800F0CCFB032C02D1124800F0C7FB022C02D1301C00F0C2FB012C02D1381C00F0BDFB002C02D1281C24
:4005000000F0B8FB00F0A0FB6128DAD1084800F0B1FBD6E7F81A0000081C00000C1C0000EC1B0000B81B0000781B0000941B00002C1C0000FEE7C046F8B50F4F0F4E002477
:4005400012E031687368B568221C02E001C901C30432AA42FAD1F168221C01E010C304328A42FBD11036013F002FEAD101F060FAFFF798FFFEE7C04601000000B01D000043
:4005800038B500230D4C0E4D0E4808E0032B02D89A00515900E0211C9A00115001332F2BF4D9FFF77DFD0022074B1A608023DB05196801220A431A6038BDC04635050000F9
:4005C0000000000000000020C000002008B50A1C002101F05CFA08BD08B5044B1B78002B02D00B2000F078FB08BDC0465001002008B5064B1B78022B02D100F0EFF803E02A
:40060000042B01D100F04CFA08BDC046CC00002008B50B4B1B78012B02D100F0D9F80DE0082B02D100F08CFA08E0022B02D100F0DBF803E0042B01D100F046FA08BDC04673
:40064000CC000020034B1B78FF2B02D10022024B1A707047CC0000200401002008B5074B1B78FF2B09D0064B1968802212060A431A60FFF7B1FFFFF7BBFF08BDCC000020F0
:400680000000074008B5064B1B78002B04D1FFF7D9FF0122024B1A70FFF7E0FF08BDC0460401002008B50B2000F020FBFFF7B0FF054B1A68520052081A600022034B1A604B
:4006C0000B2000F01DFB08BD00000740880F074070B58EB00023002505E09C0007AEA5516E46A5510133062BF7D9012801D0082807D10E230793089304230093019300244D
:4007000029E0022810D10F2307930893002905D1012300930623019302241CE00623009301230193012416E0012905D1092308930423019300240EE0D00703D50923079311
:4007400001230093910705D50923089306230193022400E000241A4B19681A4A0A40079E31040A431A600099C8B200F099FAE30705D5154B196810220A431A6004E0124BF8
:400780001A6810218A431A600D4B19680F4A0A40089E31050A431A600199C8B200F08EFA0223234205D0084B196820220A431A6004E0054B1A6820218A431A600EB070BD2F
:4007C00000000140FFFFF0FF18000440FFFF0FFF1022014B1A7070476C010020014B1B687047C04620000740014B1B687047C0462000074010B5041E03D1002000F08AFAE2
:400800000FE1042021686268FFF762FF0422854B1A70854B206B1870844B616D1970844BA26B1A60227A834B1A70FF23606B1840814908608149206C086081490A70E16B62
:400840000B40804A13602268022A29D1A369002B22D06369102B1DD0202B19D0302B15D0602B11D0C02B0DD0C0229200934207D0C022D200934201D106220EE000220CE0DC
:4008800005220AE0042208E0032206E0022204E0012202E0002200E010226B4B1A6005E06369013B0F221A40674B1A60664B1B68A06C002801D0654A01E0802292041A439B
:4008C000614B1A6021680B06C02292041A40604B1A602369013B07221A40636A002B01D0402300E000231A43606C002802D08023DB0000E000231A43A16A002902D080231D
:400900005B0000E000231A43E36A002B02D080239B0000E000231A434E4B1A60E368022B09D04C4A1268002B01D0302300E020231A43484B1A60A368013B0F221A40E069A9
:40094000002802D080239B0000E000231A436168C90702D580231B0600E000231A433E4B1A600723E16D19403C4A1160FF22E06C0240216D0804FF21090401401143384AF3
:4009800011602269013A1340226A002A02D08022520000E000221343324A1360E368022B08D01268002B01D0302300E020231A432C4B1A60A368013B0F221A4063689B0721
:4009C00002D580231B0600E000231A43264B1A600722606E0240254B1A600B2000F086F90B20032100F0A8F90B20214900F094F90023204A1360204A1360204A1360204A3E
:400A00001360204AA16D1160216E1F4A11601F4A13601F4A13601F4A13701F4A13601F4A136010BDCC000020590100205001002064010020520100205C0100205401002007
:400A40006001002068010020000007400000010240000740480007400003074004030740100307404400074000020740040207408D120000880E0740C80E0740480F0740C2
:400A8000080F0740C80F0740880F07409801002094010020A00100209C01002090010020064B1B689B035B0F07D0054B1968054A0A40902109040A431A607047080004409A
:400AC00000000140FFFF0FFF074B1B689B035B0F04D0064B1968064A0A401A60054B1968054A0A401A6070470800044000000140FFFF0FFF48000740FFDFFFFF08B500F0C6
:400B0000BDFA002802D000F015FB00E00020054B1A68D8239B001A4203D01A1C014B1A60002008BDC00F074038B5051C002402E000F046FB0134285D0028F9D138BDC0468A
:400B4000044B1B78002B01D0022200E00022024B1A7070475A0100207601002008B500F069F808BD08B500F01DF808BD08B5044B1968802212060A431A60FFF7EFFF08BDC0
:400B80000000064008B5064B1B78002B04D1FFF7E9FF0122024B1A70FFF7E8FF08BDC0460C01002010B5124A124B1A600023124A13602121114A1160114A12480260072467
:400BC00011480460114803601148016011490A60114A1360114A1360114A1360114A1360114A1360114A1360114A136010BDC0460B00000200000640400006404800064022
:400C000006000080000306400403064010030640440006400002064004020640880E0640C80E0640480F0640080F0640C80F0640880F0640034B1A68F0218A4390210A4389
:400C40001A6070471000014008B500F0B3FB002802D000F0A9FB00E00020054B1A68D8239B001A4203D01A1C014B1A60002008BDC00F064038B5051C002402E000F0A2FBDB
:400C80000134285D0028F9D138BDC046034B1A68120C1204104318607047C04600000240044B1968044A11400203081C104318607047C04608000440FF8FFFFF044B1968F7
:400CC000044A1140C203081C104318607047C04608000440FF7FFCFF1F23184001238340181C014B1860704700E100E01F23184001238340181C014B1860704780E100E0BD
:400D00001F23184001238340181C014B1860704780E200E001BE704738B5041C0D1C1F2802D90020FFF7F6FFA400024BE4182068256038BD4000002070B5041C0E1E032E77
:400D400002D90020FFF7E6FF1F2C02D90020FFF7E1FF03252540ED00063500F04BFBA408A400064BE41823680322AA409343AE40351C1D43256000F041FB70BD00E400E048
:400D800070B5041C80252D02074E04E0306800F027FB064BE418AC42F8D8034B5868604300F01EFB70BDC046D00000200080FFFF08B5034B1B7A584300F012FB08BDC046CE
:400DC000D0000020F0B557464E464546E0B4041C00F010FB8046E51E2D2D73D83F4B1B78DBB2A34208D33E4B1B78DBB29A463D4B1B78DBB2994631E03B4B1B78DBB2A3426F
:400E000008D33A4B1B78DBB29A46394B1B78DBB2994623E0374B1B78DBB2A34208D3364B1B78DBB29A46354B1B78DBB2994615E0334B1B78DBB2A34208D3324B1B78DBB27A
:400E40009A46314B1B78DBB2994607E02F4B1B78DBB29A462E4B1B78DBB299462D4B5E5D2F2E09D92A2C07D919222B4B1A60052000F0B6FA192703E0274B1F683F231F40C9
:400E8000BE4206D2234B5A5D234B1A60052000F0A7FA1F4AA4182278D2B2204B1A60204B52461A601F4B4A461A600520FFF780FFBE420AD9174B5A5D174B1A60052000F0F7
:400EC0008FFA02E00020FFF725FF404600F096FA1CBC90469946A246F0BDC046C0F1FF0FC1F1FF0FC2F1FF0FC3F1FF0FC4F1FF0FC5F1FF0FC6F1FF0FC7F1FF0FC8F1FF0F44
:400F0000C9F1FF0FCAF1FF0FCBF1FF0FCCF1FF0FCDF1FF0F581C00002CFF0B4028FF0B401CFF0B4020FF0B40044B1A68C0231B021A4201D0012000E00020704700010B4071
:400F400008B500F057FA044B1968C02212020A431A6000F053FA08BD00010B4010B500F049FA084B1968084A11408024E4012143196019680A40802109020A431A6000F095
:400F80003DFA10BD00010B40FF3FFFFF38B5051C00F030FA041CFFF7C7FF002803D0FFF7DDFF012200E00022084B1D40084B1868084901400D431D601B68012A01D1FFF757
:400FC000BFFF201C00F01AFA38BDC0460404040010020B40FBFBFBFF10B5244B1B685A0715D5234B1B685A070ED5224B9C69042214401F490868A043086099699143996189
:40100000DB68002B00D098470420FFF7BFFF174B1B685A0518D5164B1B685A0510D5154B9A698020C0001040114A1168814311609969114A0A409A611B69002B00D0984746
:401040008020C000FFF7A2FF084B1B685A030CD5074B1B685A0304D5064B5B69002B00D098478020C002FFF791FF10BD10020B40E000002010010020FFFBFFFF0D4B1B6855
:40108000002B11D00C4B1B680C4A1268934203D30A4A1068181A0BE0084A126808490868801AC318581C03E0064B1B680F2018407047C04664010020980100209401002082
:4010C0005C0100200803074010B50B4B1B78082B05D10A4B1B681818C9B201700BE04000064B1C682218CCB2147001301B68181889B2090A017010BD5201002064010020D2
:401100000A490978082905D1094B1A6810180078C0B209E0064B1B6842009918097801329B181878000208437047C046520100206401002010B50F4B1B68002B14D00E4B39
:401140001A680E4B1B689A4211D00C4B1C6801340B4B1B680133A34200D10024201CFFF7CFFF064B1C6003E0064B186800E0002010BDC04664010020980100209401002016
:401180005C0100204003074010B50B4B1B78082B05D10A4B1B681818C9B201700BE04000064B1C682218CCB2147001301B68181889B2090A017010BD6001002054010020DB
:4011C00038B5011C1C4B1B68002B2CD01B4B1A681B4B1B689A4208D11A4B1B680F221340082B02D0184B186025E0144B1C680134164B1B68A34200D10024114A13689C4273
:40120000FCD00225124B1D60201CFFF7BDFF0B4B1C60104B1B681D420DD10E4B196802220A431A6007E007480F2203681340082BFBD0054B196038BD540100209C0100202E
:4012400090010020080207404002074068010020800F0740880F07400A490978082905D1094B1A6810180078C0B209E0064B1B6842009918097801329B18187800020843EF
:401280007047C0466001002054010020F8B5314B1B68002B00D098472F4B1B78002B02D001222E4B1A602E4B1B68002B24D02D4B1B685A0720D52C4F2C4E2D4D3C68013421
:4012C00033680133A34200D100242B689C4205D1284B1B682022284B1A7006E0254B1968201CFFF7F1FE204B1C60244B1B681A07E4D10422224B1A60224B1B68002B27D003
:40130000214B1B689A0723D5204E214D2F1C32682B689A4214D03C6801341E4B1B68A34200D10024201CFFF797FF1B4B1860184B1C601A4B1B680F221340082BE7D104E0B2
:40134000174B1A6802218A431A600222154B1A60F8BDC0460801002059010020C00E074064010020CC0F0740980100205C0100209401002040030740A0010020080307407F
:40138000C00F0740540100208C0F07409C01002090010020680100204002074008020740880F0740800F0740014B18687047C04640030640024B1B680F2018407047C04615
:4013C0000803064004490F220B681340082BFBD0024B18607047C04608020640400206400230800804D0C0460138FDD1C046C046C0467047EFF3108072B6704780F3108840
:401400007047C046C046C0469E2110B5C905041C00F028FA002803D1201C00F083F910BD9E21C905201C00F007F800F07BF980231B06C018F3E7C046F8B5C20F430244004F
:401440004D024800240E161C9B09000EC90FAD09FF2800D183E0012779408A425CD0221A002A00DC8EE000281ED1002D00D07AE0580704D00F221A40042A00D0043380214B
:40148000C90401221940324000293AD00134FF2C00D183E09B015B0A5B02E4B2E405580AD20720431043F8BDFF2CE1D08021C9040D431B2A00DD31E1291C2020D140821A27
:4014C00095406A1E95410D435B1B5801D0D59B019F09381C00F0D0F9421F974094425FDC141B1F231B1B3A1C9F40611C3B1CCA405F1EBB4113430024BAE7131EB8D1002330
:401500000022DB08FF2C04D1002B47D08020C00303435B025B0ABFE7211A002944DD002827D0FF2CA4D08020C00405431B2900DDF2E0281C2027C840791A8D40691E8D4129
:4015400005435B19590100D492E70134FF2C59D0734901221A400B405B08134388E7002D00D07AE777E7013A002AADD0FF2CA0D17EE7002D00D17BE701390029E1D0FF2C95
:40158000D4D175E7002A1BD1621CD2B2012A4BDD5F1B7A0123D5EF1A0E1C9AE700237BE75F4BA41A3B4063E7002946D1611CC8B2012829DDFF2924D0EB185B080C1C57E71E
:4015C000002C13D0FF2818D08024E404524223431B2A4DDD0123EB1A041C0E1C75E7002F00D076E70023002200248AE7002B3BD0D243002AEFD0FF28EAD12B1CFF240E1C29
:4016000036E7FF2400237CE7002C5CD1002B00D180E0002D00D12BE75B19580100D427E73F4A0124134023E7002C15D1002B40D1002D63D02B1C0E1C1AE7002C21D1002BFC
:4016400054D0C943002904D0FF284CD01B2958DD01235B19041C75E7002B19D1002D48D02B1C0E1CFF2403E72B1C041C0E1CFFE61C1C2026D440B21A93405A1E934123433C
:40168000A9E7FF282FD08024E40449422343DDE7FF24002D00D1EBE68022DB08D203134204D0ED08154201D12B1C0E1CDB00FF24DEE6002D00D1DBE65A1B500100D41CE711
:4016C000EB1A0E1CD4E6002B0DD0FF24002D00D1CEE68022DB08D2031342E7D0ED081542E4D12B1CE2E72B1CFF24C1E62B1C041CBEE6802300229B04FF2402E7231C0022C0
:40170000FFE61C1C2027CC40791A8B40591E8B4123439EE72B1CABE6012512E70125D3E6FFFFFFFB4302590A4300C20F1B0E00207E2B0DDD9D2B0CDC802000040143952BEF
:401740000ADC9620C31AD9404842002A00D1081C7047034BD018FBE7963B9940F4E7C046FFFFFF7F10B5041E33D000F085F89E231B1A962B09DC083884406402640ADBB200
:401780006402DB05600A184310BD992B0ADD0522121A211CD1400A1C011C1B318C40611E8C411443052801DD421F9440144A2240610704D00F210C40042C00D004325101C7
:4017C0000AD59F23181AFF2816D09401640AC3B2D6E700230024D3E7D208FF2B03D05402640ADBB2CCE7002A06D08024E40314436402640AFF23C3E7FF230024C0E7C04683
:40180000FFFFFFFB8446081C6146FFE71FB500F0C3F8002801D40021C8421FBD10B500F049F84042013010BD10B500F0B5F8002801DB002010BD012010BDC04610B500F040
:40184000ABF8002801DD002010BD012010BDC04610B500F059F8002801DC002010BD012010BDC04610B500F04FF8002801DA002010BD012010BDC0461C2101231B049842B8
:4018800001D3000C10391B0A984201D3000A08391B09984201D30009043902A2105C40187047C046040302020101010100000000000000004A02430270B55C0A550A4300D7
:4018C0004A001B0EC60F120EC90FFF2B05D0FF2A08D0012093420BD070BD0120002CFBD1FF2AF6D10120002DF6D101209342F3D1AC42F1D18E4205D0002BEDD1201C441EF6
:40190000A041E9E70020E7E74A024302F0B55C0A550A43004A001B0EC60F120EC90FFF2B31D0FF2A34D0002B16D1604260418446002A14D0002820D18E4217D1934215DC6E
:4019400004DBAC4212D80020AC4212D2704270414042012318430CE0002AEDD194466F426F416046002805D1002FE5D0704201231843F0BD0020002FFBD148424841404235
:4019800001231843F5E7002CCBD002204042F0E7002DC8D0F9E7C0464A024302F0B55C0A550A43004A001B0EC60F120EC90FFF2B27D0FF2A29D0002B10D0002A15D1944629
:4019C0006F426F416046002815D00020002F04D148424841404201231843F0BD604260418446002AECD00028F2D18E4211D0704201231843F1E7002FF7D07042012318432F
:401A0000EBE70220002CE8D1D3E70220002DE4D1D1E79342EBDC04DBAC42E8D80020AC42DBD270427041404201231843D5E7C04670B50E4B0E4D0024ED1AAD101E1CAC4264
:401A400004D0A300F35898470134F8E700F09EF9084B094D0024ED1AAD101E1CAC4204D0A300F35898470134F8E770BD981D0000981D0000981D0000A01D000010B50023CB
:401A8000934203D0CC5CC4540133F9E710BD031C8218934202D019700133FAE7704710B5021C1378002B01D00132FAE7CC5CD4540133002CFAD110BD02780B780130013182
:401AC000002A01D09A42F7D0D01A70470023C25C0133002AFBD1581E7047000000000000A6020000B0020000BA020000C4020000D0020000DA020000000000000300000082
:401B00000700000000000000020000001000000000000000000000000000000000000000000000000000000000000000100000002C010020100000004001002000000000BE
:401B4000000000000000000000000000010000000400000000000000000000000000000000000000000000000D0000002F3F210D0A000000300D0A004E6F206964656E7475
:401B8000696669636174696F6E206D6573736167650D0A004964656E74696669636174696F6E204D65737361676520746F6F2073686F72740D0A0000456C20726573756CEF
:401BC0007461646F206E6F20657320656C20636F72726563746F2C20707275656265206E756576616D656E74650D0A004E6F20736520686120656E636F6E747261646F208D
:401C0000656C205354580D0A000000004C6120636F6D756E69636163696F6E2066756520756E20657869746F210D0A004C6120636F6D756E69636163696F6E2066756520AF
:401C4000756E20657869746F0D0A000000300F40000400400F400004030405060708090A0B0C0E0F101112131415161718191B1C1D1E1F2021222325262728292A2B2E2F4A
:401C80003031323334350000002020202020202020202828282828202020202020202020202020202020202020881010101010101010101010101010100404040404040439
:401CC00004040410101010101010414141414141010101010101010101010101010101010101010110101010101042424242424202020202020202020202020202020202C2
:401D0000020202021010101020000000000000000000000000000000000000000000000000000000000000000000000000000000000000000000000000000000000000003B
:401D40000000000000000000000000000000000000000000000000000000000000000000000000000000000000000000000000000000000000000000000000000000000063
:401D8000000000000000000000000000F8B5C046F8BC08BC9E467047A101000081050000F8B5C046F8BC08BC9E46704779010000C01D0000C800002020000000C000000050
:401DC00000000000FF0000000000E02EC05D00001800000000366E0104040400881C000000000000000000000000000000000000000000000000000000000000000000004C
:401E000000000000000000000000000000000000000000000000000000000000000000000000000000000000000000000000000000000000000000000000000000000000A2
:401E40000000000000000000000000000000000000000000000000000000000000000000000000000000000000000000000000000000000000000000000000000000000062
:401E80000000000000000000000000000000000000000000000000000000000000000000000000000000000000000000000000000000000000000000000000000000000022
:401EC00000000000000000000000000000000000000000000000000000000000000000000000000000000000000000000000000000000000000000000000000000000000E2
:0200000490303A
:02000000232DAE
:0200000490402A
:200000000000000000000000000000000000000000000000000000000000000000000000E0
:0200000490501A
:0C000000000204C81193110104D134C0A7
:0200000490600A
:0100000001FE
:00000001FF